:020000040000FA
:100000000C9462000C948A000C948A000C948A0070
:100010000C94FD020C948A000C948A000C948A00C3
:100020000C948A000C948A000C948A000C948A0028
:100030000C948A000C948A000C948A000C948A0018
:100040000C945B020C948A000C94CB020C94A502D5
:100050000C948A000C948A000C948A000C948A00F8
:100060000C948A000C948A000000000023002600F3
:10007000290000000008000201000003040700003E
:1000800000000000000000000000250028002B00F8
:1000900000000000240027002A00040404040404D3
:1000A0000404020202020202030303030303010227
:1000B00004081020408001020408102001020408F6
:1000C00010200E0411241FBECFEFD8E0DEBFCDBF3D
:1000D00011E0A0E0B1E0E6E8F8E002C005900D9282
:1000E000A839B107D9F722E0A8E9B1E001C01D9213
:1000F000A734B207E1F710E0C2E6D0E004C02197D0
:10010000FE010E943B04C136D107C9F70E945D037E
:100110000C9441040C94000096B19093A801ECE675
:10012000F0E09081892B8083E8E6F0E080818260B6
:1001300080830895CF93DF9390E0FC01E255FF4F59
:10014000249186569F4FFC0184918823C1F090E052
:10015000880F991FFC01E057FF4FC591D491FC0116
:10016000EA57FF4FA591B4919FB7F8948881E22F89
:10017000E0958E2388838C91E823EC939FBFDF91D9
:10018000CF9108950895AF92BF92CF92DF92EF92F0
:10019000FF920F931F93CF93DF936C017B018B0131
:1001A000040F151FEB015E01AE18BF08C017D10781
:1001B00059F06991D601ED91FC910190F081E02D0B
:1001C000C6010995892B79F7C501DF91CF911F9160
:1001D0000F91FF90EF90DF90CF90BF90AF90089578
:1001E000FC01538D448D252F30E0842F90E0821B3D
:1001F000930B541710F0CF96089501970895FC01C2
:10020000918D828D981761F0A28DAE0FBF2FB11D19
:100210005D968C91928D9F5F9F73928F90E0089571
:100220008FEF9FEF0895FC01918D828D981731F02B
:10023000828DE80FF11D858D90E008958FEF9FEF7F
:100240000895FC01918D228D892F90E0805C9F4F55
:10025000821B91098F73992708958AEA91E00E9481
:10026000210121E0892B09F420E0822F089580E00C
:1002700090E0892B29F00E942D0181110C9400003F
:100280000895FC01A48DA80FB92FB11DA35ABF4F2B
:100290002C91848D90E001968F739927848FA68985
:1002A000B7892C93A089B1898C91837080648C93D9
:1002B000938D848D981306C00288F389E02D808188
:1002C0008F7D80830895EF92FF920F931F93CF93BA
:1002D000DF93EC0181E0888F9B8D8C8D98131AC081
:1002E000E889F989808185FF15C09FB7F894EE8968
:1002F000FF896083E889F9898081837080648083C5
:100300009FBF81E090E0DF91CF911F910F91FF900F
:10031000EF900895F62E0B8D10E00F5F1F4F0F73B7
:100320001127E02E8C8D8E110CC00FB607FCFACF72
:10033000E889F989808185FFF5CFCE010E944101CE
:10034000F1CFEB8DEC0FFD2FF11DE35AFF4FF08243
:100350009FB7F8940B8FEA89FB8980818062CFCFA9
:10036000CF93DF93EC01888D8823B9F0AA89BB89EC
:10037000E889F9898C9185FD03C0808186FD0DC0D7
:100380000FB607FCF7CF8C9185FFF2CF808185FFF8
:10039000EDCFCE010E944101E9CFDF91CF910895C9
:1003A00090E0FC01EE58FF4F2491FC01E255FF4F15
:1003B0003491FC01E656FF4FE491EE23C1F1222374
:1003C00039F02330E9F090F4213001F1223011F1BD
:1003D000F0E0EE0FFF1FE859FF4FA591B491EC91AB
:1003E000E32381E090E029F580E008952730A9F02B
:1003F0002830C9F0243061F7809180008F7D03C0E0
:10040000809180008F7780938000E2CF84B58F77D2
:1004100084BDDECF84B58F7DFBCF8091B0008F7718
:100420008093B000D5CF8091B0008F7DF9CF80E070
:1004300090E00895CF93DF93FC0101900020E9F74D
:100440003197AF01481B590BBC018AEA91E00E9429
:10045000C300EC0142E050E06EE171E08AEA91E015
:100460000E94C3008C0F9D1FDF91CF91089581E101
:100470000E94D001019721F481E291E00C941A02CC
:1004800087E391E0FBCF80E10E94D001019721F446
:100490008AE491E00C941A0280E691E0FBCF8FE0B1
:1004A0000E94D001019721F483E791E00C941A0295
:1004B00085E891E0FBCF1F920F920FB60F921124A7
:1004C0002F933F938F939F93AF93BF938091A301FB
:1004D0009091A401A091A501B091A6013091A20133
:1004E00023E0230F2D3758F50196A11DB11D209350
:1004F000A2018093A3019093A401A093A501B093BE
:10050000A60180919E0190919F01A091A001B091C0
:10051000A1010196A11DB11D80939E0190939F01A1
:10052000A093A001B093A101BF91AF919F918F9132
:100530003F912F910F900FBE0F901F90189526E8B6
:10054000230F0296A11DB11DD2CF1F920F920FB69D
:100550000F9211242F933F934F935F936F937F9349
:100560008F939F93AF93BF93EF93FF938AEA91E0AA
:100570000E944101FF91EF91BF91AF919F918F91A7
:100580007F916F915F914F913F912F910F900FBE8F
:100590000F901F9018951F920F920FB60F92112473
:1005A0002F938F939F93EF93FF93E091BA01F09174
:1005B000BB018081E091C001F091C10182FD1BC0AF
:1005C00090818091C3018F5F8F732091C401821746
:1005D00041F0E091C301F0E0E655FE4F958F809326
:1005E000C301FF91EF919F918F912F910F900FBEBB
:1005F0000F901F9018958081F4CF1F920F920FB625
:100600000F9211242F933F934F935F936F937F9398
:100610008F939F93AF93BF93CF93EF93FF9396B135
:100620008091A801C0919C01C923282F2095C22345
:10063000209199018223292F20958223C82B909302
:10064000A801C0FF05C0E0910001F09101010995EA
:10065000C1FF05C0E0910A01F0910B010995C2FFAD
:1006600005C0E0910801F09109010995C3FF05C09B
:10067000E0910601F09107010995C4FF05C0E091E2
:100680000201F09103010995C5FF05C0E091040145
:10069000F09105010995FF91EF91CF91BF91AF9135
:1006A0009F918F917F916F915F914F913F912F918A
:1006B0000F900FBE0F901F901895789484B58260AC
:1006C00084BD84B5816084BD85B5826085BD85B5F6
:1006D000816085BD80916E00816080936E00109274
:1006E00081008091810082608093810080918100EF
:1006F0008160809381008091800081608093800080
:100700008091B10084608093B1008091B0008160DD
:100710008093B00080917A00846080937A00809109
:100720007A00826080937A0080917A008160809361
:100730007A0080917A00806880937A001092C100DC
:100740008FE00E949A0080E10E949A0081E10E945D
:100750009A008FE492E090930B0180930A01D0916C
:100760009C01C091990182E00E948C0083E492E098
:10077000909309018093080184E00E948C0087E334
:1007800092E09093070180930601DE60D0939C0174
:10079000CE60C093990188E00E948C00E091BA017C
:1007A000F091BB0182E08083E091B601F091B70146
:1007B0001082E091B801F091B9018FEC8083109222
:1007C000C201E091BE01F091BF0186E08083E0911B
:1007D000BC01F091BD01808180618083E091BC010A
:1007E000F091BD01808188608083E091BC01F0912F
:1007F000BD01808180688083E091BC01F091BD01E2
:1008000080818F7D8083C0E0D0E02097F1F30E944B
:100810002D018823D1F30E940000F7CFEAEAF1E02E
:100820001382128288EE93E0A0E0B0E08483958387
:10083000A683B78380E191E09183808385EC90E08B
:100840009587848784EC90E09787868780EC90E09A
:10085000918B808B81EC90E0938B828B82EC90E08B
:10086000958B848B86EC90E0978B868B118E128E05
:10087000138E148E0895EE0FFF1F0590F491E02D56
:100880000994F894FFCFC200C200C200C200C200A7
:10089000C200000000006301C300F000B0012101AC
:1008A000FF0013010D0A0050727A796369736B209F
:1008B00033206E6965616B7479776E790050727A56
:1008C000796369736B203320616B7479776E79007B
:1008D00050727A796369736B2032206E6965616B3F
:1008E0007479776E790050727A796369736B20320C
:1008F00020616B7479776E790050727A79636973CD
:100900006B2031206E69657763690050727A796374
:0E09100069736B203120616B7479776E79000A
:107E0000112484B714BE81FFF0D085E080938100F7
:107E100082E08093C00088E18093C10086E0809377
:107E2000C20080E18093C4008EE0C9D0259A86E02C
:107E300020E33CEF91E0309385002093840096BBD3
:107E4000B09BFECF1D9AA8958150A9F7CC24DD24C4
:107E500088248394B5E0AB2EA1E19A2EF3E0BF2EE7
:107E6000A2D0813461F49FD0082FAFD0023811F036
:107E7000013811F484E001C083E08DD089C08234E0
:107E800011F484E103C0853419F485E0A6D080C0E4
:107E9000853579F488D0E82EFF2485D0082F10E0AE
:107EA000102F00270E291F29000F111F8ED06801E7
:107EB0006FC0863521F484E090D080E0DECF843638
:107EC00009F040C070D06FD0082F6DD080E0C81688
:107ED00080E7D80618F4F601B7BEE895C0E0D1E017
:107EE00062D089930C17E1F7F0E0CF16F0E7DF06D8
:107EF00018F0F601B7BEE89568D007B600FCFDCFD4
:107F0000A601A0E0B1E02C9130E011968C91119780
:107F100090E0982F8827822B932B1296FA010C0160
:107F200087BEE89511244E5F5F4FF1E0A038BF0790
:107F300051F7F601A7BEE89507B600FCFDCF97BE46
:107F4000E89526C08437B1F42ED02DD0F82E2BD052
:107F50003CD0F601EF2C8F010F5F1F4F84911BD097
:107F6000EA94F801C1F70894C11CD11CFA94CF0C13
:107F7000D11C0EC0853739F428D08EE10CD085E9AC
:107F80000AD08FE07ACF813511F488E018D01DD067
:107F900080E101D065CF982F8091C00085FFFCCF94
:107FA0009093C60008958091C00087FFFCCF809118
:107FB000C00084FD01C0A8958091C6000895E0E648
:107FC000F0E098E1908380830895EDDF803219F02E
:107FD00088E0F5DFFFCF84E1DECF1F93182FE3DFCA
:107FE0001150E9F7F2DF1F91089580E0E8DFEE27F6
:047FF000FF270994CA
:027FFE00040479
:00000001FF
